{
  "contractName": "MedicalDataRegistry",
  "abi": [
    {
      "anonymous": false,
      "inputs": [
        {
          "indexed": true,
          "internalType": "bytes32",
          "name": "dataHash",
          "type": "bytes32"
        },
        {
          "indexed": false,
          "internalType": "uint256",
          "name": "price",
          "type": "uint256"
        }
      ],
      "name": "DataMadePublic",
      "type": "event"
    },
    {
      "anonymous": false,
      "inputs": [
        {
          "indexed": true,
          "internalType": "bytes32",
          "name": "dataHash",
          "type": "bytes32"
        },
        {
          "indexed": true,
          "internalType": "address",
          "name": "buyer",
          "type": "address"
        },
        {
          "indexed": false,
          "internalType": "uint256",
          "name": "price",
          "type": "uint256"
        }
      ],
      "name": "DataPurchased",
      "type": "event"
    },
    {
      "anonymous": false,
      "inputs": [
        {
          "indexed": true,
          "internalType": "bytes32",
          "name": "dataHash",
          "type": "bytes32"
        },
        {
          "indexed": true,
          "internalType": "address",
          "name": "owner",
          "type": "address"
        },
        {
          "indexed": false,
          "internalType": "string",
          "name": "ipfsHash",
          "type": "string"
        }
      ],
      "name": "DataRegistered",
      "type": "event"
    },
    {
      "anonymous": false,
      "inputs": [
        {
          "indexed": true,
          "internalType": "address",
          "name": "patient",
          "type": "address"
        },
        {
          "indexed": false,
          "internalType": "string",
          "name": "name",
          "type": "string"
        }
      ],
      "name": "PatientRegistered",
      "type": "event"
    },
    {
      "inputs": [
        {
          "internalType": "uint256",
          "name": "",
          "type": "uint256"
        }
      ],
      "name": "allDataHashes",
      "outputs": [
        {
          "internalType": "bytes32",
          "name": "",
          "type": "bytes32"
        }
      ],
      "stateMutability": "view",
      "type": "function",
      "constant": true
    },
    {
      "inputs": [
        {
          "internalType": "uint256",
          "name": "",
          "type": "uint256"
        }
      ],
      "name": "allPatients",
      "outputs": [
        {
          "internalType": "address",
          "name": "",
          "type": "address"
        }
      ],
      "stateMutability": "view",
      "type": "function",
      "constant": true
    },
    {
      "inputs": [
        {
          "internalType": "bytes32",
          "name": "",
          "type": "bytes32"
        },
        {
          "internalType": "uint256",
          "name": "",
          "type": "uint256"
        }
      ],
      "name": "dataAccessors",
      "outputs": [
        {
          "internalType": "address",
          "name": "",
          "type": "address"
        }
      ],
      "stateMutability": "view",
      "type": "function",
      "constant": true
    },
    {
      "inputs": [
        {
          "internalType": "bytes32",
          "name": "",
          "type": "bytes32"
        }
      ],
      "name": "medicalDataRegistry",
      "outputs": [
        {
          "internalType": "string",
          "name": "ipfsHash",
          "type": "string"
        },
        {
          "internalType": "string",
          "name": "patientName",
          "type": "string"
        },
        {
          "internalType": "string",
          "name": "dataType",
          "type": "string"
        },
        {
          "internalType": "uint256",
          "name": "timestamp",
          "type": "uint256"
        },
        {
          "internalType": "address",
          "name": "owner",
          "type": "address"
        },
        {
          "internalType": "bool",
          "name": "isPublic",
          "type": "bool"
        },
        {
          "internalType": "uint256",
          "name": "price",
          "type": "uint256"
        },
        {
          "internalType": "bool",
          "name": "exists",
          "type": "bool"
        }
      ],
      "stateMutability": "view",
      "type": "function",
      "constant": true
    },
    {
      "inputs": [
        {
          "internalType": "address",
          "name": "",
          "type": "address"
        },
        {
          "internalType": "uint256",
          "name": "",
          "type": "uint256"
        }
      ],
      "name": "patientDataHashes",
      "outputs": [
        {
          "internalType": "bytes32",
          "name": "",
          "type": "bytes32"
        }
      ],
      "stateMutability": "view",
      "type": "function",
      "constant": true
    },
    {
      "inputs": [
        {
          "internalType": "address",
          "name": "",
          "type": "address"
        }
      ],
      "name": "patients",
      "outputs": [
        {
          "internalType": "string",
          "name": "name",
          "type": "string"
        },
        {
          "internalType": "string",
          "name": "email",
          "type": "string"
        },
        {
          "internalType": "address",
          "name": "walletAddress",
          "type": "address"
        },
        {
          "internalType": "bool",
          "name": "isRegistered",
          "type": "bool"
        }
      ],
      "stateMutability": "view",
      "type": "function",
      "constant": true
    },
    {
      "inputs": [
        {
          "internalType": "address",
          "name": "",
          "type": "address"
        }
      ],
      "name": "userRoles",
      "outputs": [
        {
          "internalType": "enum MedicalDataRegistry.Role",
          "name": "",
          "type": "uint8"
        }
      ],
      "stateMutability": "view",
      "type": "function",
      "constant": true
    },
    {
      "inputs": [
        {
          "internalType": "string",
          "name": "_name",
          "type": "string"
        },
        {
          "internalType": "string",
          "name": "_email",
          "type": "string"
        }
      ],
      "name": "registerPatient",
      "outputs": [],
      "stateMutability": "nonpayable",
      "type": "function"
    },
    {
      "inputs": [
        {
          "internalType": "string",
          "name": "_ipfsHash",
          "type": "string"
        },
        {
          "internalType": "string",
          "name": "_patientName",
          "type": "string"
        },
        {
          "internalType": "string",
          "name": "_dataType",
          "type": "string"
        }
      ],
      "name": "registerMedicalData",
      "outputs": [
        {
          "internalType": "bytes32",
          "name": "",
          "type": "bytes32"
        }
      ],
      "stateMutability": "nonpayable",
      "type": "function"
    },
    {
      "inputs": [
        {
          "internalType": "bytes32",
          "name": "_dataHash",
          "type": "bytes32"
        },
        {
          "internalType": "uint256",
          "name": "_price",
          "type": "uint256"
        }
      ],
      "name": "makeDataPublic",
      "outputs": [],
      "stateMutability": "nonpayable",
      "type": "function"
    },
    {
      "inputs": [
        {
          "internalType": "bytes32",
          "name": "_dataHash",
          "type": "bytes32"
        }
      ],
      "name": "purchaseDataAccess",
      "outputs": [],
      "stateMutability": "payable",
      "type": "function",
      "payable": true
    },
    {
      "inputs": [
        {
          "internalType": "bytes32",
          "name": "_dataHash",
          "type": "bytes32"
        }
      ],
      "name": "verifyDataIntegrity",
      "outputs": [
        {
          "internalType": "bool",
          "name": "",
          "type": "bool"
        },
        {
          "internalType": "string",
          "name": "",
          "type": "string"
        },
        {
          "internalType": "address",
          "name": "",
          "type": "address"
        },
        {
          "internalType": "uint256",
          "name": "",
          "type": "uint256"
        }
      ],
      "stateMutability": "view",
      "type": "function",
      "constant": true
    },
    {
      "inputs": [],
      "name": "getPublicDataList",
      "outputs": [
        {
          "internalType": "bytes32[]",
          "name": "",
          "type": "bytes32[]"
        }
      ],
      "stateMutability": "view",
      "type": "function",
      "constant": true
    },
    {
      "inputs": [
        {
          "internalType": "address",
          "name": "_patient",
          "type": "address"
        }
      ],
      "name": "getPatientData",
      "outputs": [
        {
          "internalType": "bytes32[]",
          "name": "",
          "type": "bytes32[]"
        }
      ],
      "stateMutability": "view",
      "type": "function",
      "constant": true
    },
    {
      "inputs": [
        {
          "internalType": "bytes32",
          "name": "_dataHash",
          "type": "bytes32"
        },
        {
          "internalType": "address",
          "name": "_user",
          "type": "address"
        }
      ],
      "name": "hasAccessToData",
      "outputs": [
        {
          "internalType": "bool",
          "name": "",
          "type": "bool"
        }
      ],
      "stateMutability": "view",
      "type": "function",
      "constant": true
    },
    {
      "inputs": [
        {
          "internalType": "bytes32",
          "name": "_dataHash",
          "type": "bytes32"
        }
      ],
      "name": "getMedicalData",
      "outputs": [
        {
          "internalType": "string",
          "name": "ipfsHash",
          "type": "string"
        },
        {
          "internalType": "string",
          "name": "patientName",
          "type": "string"
        },
        {
          "internalType": "string",
          "name": "dataType",
          "type": "string"
        },
        {
          "internalType": "uint256",
          "name": "timestamp",
          "type": "uint256"
        },
        {
          "internalType": "address",
          "name": "owner",
          "type": "address"
        },
        {
          "internalType": "bool",
          "name": "isPublic",
          "type": "bool"
        },
        {
          "internalType": "uint256",
          "name": "price",
          "type": "uint256"
        }
      ],
      "stateMutability": "view",
      "type": "function",
      "constant": true
    },
    {
      "inputs": [
        {
          "internalType": "address",
          "name": "user",
          "type": "address"
        },
        {
          "internalType": "enum MedicalDataRegistry.Role",
          "name": "role",
          "type": "uint8"
        }
      ],
      "name": "setRole",
      "outputs": [],
      "stateMutability": "nonpayable",
      "type": "function"
    },
    {
      "inputs": [
        {
          "internalType": "address",
          "name": "user",
          "type": "address"
        }
      ],
      "name": "getRole",
      "outputs": [
        {
          "internalType": "enum MedicalDataRegistry.Role",
          "name": "",
          "type": "uint8"
        }
      ],
      "stateMutability": "view",
      "type": "function",
      "constant": true
    }
  ],
  "bytecode": "0x608060405234801561001057600080fd5b5061210f806100206000396000f3fe608060405260043610610126576000357c0100000000000000000000000000000000000000000000000000000000900480638573bb8e116100b2578063d6a63ddf11610081578063d6a63ddf14610383578063d8f608df146103b6578063d9366ba2146103d6578063e11726f6146103f6578063ebbe2e3e1461040957600080fd5b80638573bb8e146102e3578063881d5e4d1461030357806391a806c8146103235780639dc472151461035357600080fd5b806348e81852116100f957806348e8185214610210578063571c3e601461023d57806374d5e1001461025f57806377d37dbb1461028f57806380911fa4146102c357600080fd5b80630869cfbc1461012b57806318e38be6146101645780631b9d52281461019257806344276733146101ca575b600080fd5b34801561013757600080fd5b5061014b610146366004611a03565b61041e565b60405161015b9493929190611a75565b60405180910390f35b34801561017057600080fd5b5061018461017f366004611b62565b610566565b60405190815260200161015b565b34801561019e57600080fd5b506101b26101ad366004611bea565b610806565b604051600160a060020a03909116815260200161015b565b3480156101d657600080fd5b506102036101e5366004611a03565b600160a060020a031660009081526020819052604090205460ff1690565b60405161015b9190611c25565b34801561021c57600080fd5b5061023061022b366004611a03565b61083e565b60405161015b9190611c50565b34801561024957600080fd5b5061025d610258366004611c94565b6108aa565b005b34801561026b57600080fd5b5061020361027a366004611a03565b60006020819052908152604090205460ff1681565b34801561029b57600080fd5b506102af6102aa366004611ccf565b6108e8565b60405161015b989796959493929190611ce8565b3480156102cf57600080fd5b5061025d6102de366004611d5b565b610ad2565b3480156102ef57600080fd5b506101846102fe366004611ccf565b610c6c565b34801561030f57600080fd5b5061025d61031e366004611bea565b610c8d565b34801561032f57600080fd5b5061034361033e366004611ccf565b610dad565b60405161015b9493929190611dbf565b34801561035f57600080fd5b5061037361036e366004611df6565b61102a565b604051901515815260200161015b565b34801561038f57600080fd5b506103a361039e366004611ccf565b611125565b60405161015b9796959493929190611e22565b3480156103c257600080fd5b506101b26103d1366004611ccf565b6113cc565b3480156103e257600080fd5b506101846103f1366004611e8b565b6113f6565b61025d610404366004611ccf565b611427565b34801561041557600080fd5b50610230611847565b60026020526000908152604090208054819061043990611eb5565b80601f016020809104026020016040519081016040528092919081815260200182805461046590611eb5565b80156104b25780601f10610487576101008083540402835291602001916104b2565b820191906000526020600020905b81548152906001019060200180831161049557829003601f168201915b5050505050908060010180546104c790611eb5565b80601f01602080910402602001604051908101604052809291908181526020018280546104f390611eb5565b80156105405780601f1061051557610100808354040283529160200191610540565b820191906000526020600020905b81548152906001019060200180831161052357829003601f168201915b50505060029093015491925050600160a060020a0381169060ff60a060020a9091041684565b3360009081526002602081905260408220015460a060020a900460ff166105d75760405160e560020a62461bcd02815260206004820152601660248201527f50617469656e74206e6f7420726567697374657265640000000000000000000060448201526064015b60405180910390fd5b60008433426040516020016105ee93929190611ef2565b60408051601f1981840301815291815281516020928301206000818152600190935291206006015490915060ff161561066c5760405160e560020a62461bcd02815260206004820152601760248201527f4461746120616c7265616479207265676973746572656400000000000000000060448201526064016105ce565b60408051610100810182528681526020808201879052818301869052426060830152336080830152600060a0830181905260c08301819052600160e0840181905285825290915291909120815181906106c59082611f86565b50602082015160018201906106da9082611f86565b50604082015160028201906106ef9082611f86565b506060820151600382810191909155608083015160048301805460a0860151600160a060020a0390931674ffffffffffffffffffffffffffffffffffffffffff199091161760a060020a9215159290920291909117905560c083015160058084019190915560e0909301516006909201805460ff19169215159290921790915533600081815260209283526040808220805460018181018355918452948320909401869055845493840185559390527f036b6384b5eca791c62761152d0c79bb0604c104a5fb6f4eb0703f3154bb3db0909101839055905182907fb545e385d9f05d6f253be1aac34ba21212dcdfa5581bf301cba1b9c26d0972c3906107f690899061204c565b60405180910390a3949350505050565b6004602052816000526040600020818154811061082257600080fd5b600091825260209091200154600160a060020a03169150829050565b600160a060020a03811660009081526003602090815260409182902080548351818402810184019094528084526060939283018282801561089e57602002820191906000526020600020905b81548152602001906001019080831161088a575b50505050509050919050565b600160a060020a0382166000908152602081905260409020805482919060ff191660018360028111156108df576108df611c0c565b02179055505050565b60016020526000908152604090208054819061090390611eb5565b80601f016020809104026020016040519081016040528092919081815260200182805461092f90611eb5565b801561097c5780601f106109515761010080835404028352916020019161097c565b820191906000526020600020905b81548152906001019060200180831161095f57829003601f168201915b50505050509080600101805461099190611eb5565b80601f01602080910402602001604051908101604052809291908181526020018280546109bd90611eb5565b8015610a0a5780601f106109df57610100808354040283529160200191610a0a565b820191906000526020600020905b8154815290600101906020018083116109ed57829003601f168201915b505050505090806002018054610a1f90611eb5565b80601f0160208091040260200160405190810160405280929190818152602001828054610a4b90611eb5565b8015610a985780601f10610a6d57610100808354040283529160200191610a98565b820191906000526020600020905b815481529060010190602001808311610a7b57829003601f168201915b50505060038401546004850154600586015460069096015494959194600160a060020a038216945060ff60a060020a909204821693501688565b336000908152600260208190526040909120015460a060020a900460ff1615610b405760405160e560020a62461bcd02815260206004820152601a60248201527f50617469656e7420616c7265616479207265676973746572656400000000000060448201526064016105ce565b6040805160808101825283815260208082018490523382840181905260016060840152600090815260029091529190912081518190610b7f9082611f86565b5060208201516001820190610b949082611f86565b5060408281015160029092018054606090940151151560a060020a0274ffffffffffffffffffffffffffffffffffffffffff19909416600160a060020a0390931692909217929092179055600680546001810182556000919091527ff652222313e28459528d920b65115c16c04f3efc82aaedc97be59f3f377c0d3f01805473ffffffffffffffffffffffffffffffffffffffff19163390811790915590517fc85b128388b9c331a2a5485dce4cd0f3db9f7c279d327ce95d6d39d6c94644c790610c6090859061204c565b60405180910390a25050565b60058181548110610c7c57600080fd5b600091825260209091200154905081565b6000828152600160205260409020600401548290600160a060020a03163314610cfb5760405160e560020a62461bcd02815260206004820152601260248201527f4e6f74207468652064617461206f776e6572000000000000000000000000000060448201526064016105ce565b600083815260016020526040902060060154839060ff16610d315760405160e560020a62461bcd0281526004016105ce9061205f565b6000848152600160205260409081902060048101805474ff0000000000000000000000000000000000000000191660a060020a1790556005018490555184907f8b500b17bde807c0d81ceb0ef2381256613fb5d56f0a5956c8fb504236ea624290610d9f9086815260200190565b60405180910390a250505050565b60008181526001602052604081206006015460609082908190859060ff16610dea5760405160e560020a62461bcd0281526004016105ce9061205f565b60008681526001602052604080822081516101008101909252805482908290610e1290611eb5565b80601f0160208091040260200160405190810160405280929190818152602001828054610e3e90611eb5565b8015610e8b5780601f10610e6057610100808354040283529160200191610e8b565b820191906000526020600020905b815481529060010190602001808311610e6e57829003601f168201915b50505050508152602001600182018054610ea490611eb5565b80601f0160208091040260200160405190810160405280929190818152602001828054610ed090611eb5565b8015610f1d5780601f10610ef257610100808354040283529160200191610f1d565b820191906000526020600020905b815481529060010190602001808311610f0057829003601f168201915b50505050508152602001600282018054610f3690611eb5565b80601f0160208091040260200160405190810160405280929190818152602001828054610f6290611eb5565b8015610faf5780601f10610f8457610100808354040283529160200191610faf565b820191906000526020600020905b815481529060010190602001808311610f9257829003601f168201915b5050509183525050600382015460208201526004820154600160a060020a038116604083015260a060020a900460ff90811615156060808401919091526005840154608080850191909152600690940154909116151560a09092019190915282519183015192015160019a9199509197509095509350505050565b600082815260016020526040812060040154600160a060020a038084169116036110565750600161111f565b6000838152600460209081526040808320805482518185028101850190935280835291929091908301828280156110b657602002820191906000526020600020905b8154600160a060020a03168152600190910190602001808311611098575b5050505050905060005b81518110156111185783600160a060020a03168282815181106110e5576110e5612096565b6020026020010151600160a060020a0316036111065760019250505061111f565b80611110816120af565b9150506110c0565b5060009150505b92915050565b6000818152600160205260408120600601546060918291829190819081908190889060ff166111695760405160e560020a62461bcd0281526004016105ce9061205f565b6000898152600160205260408082208151610100810190925280548290829061119190611eb5565b80601f01602080910402602001604051908101604052809291908181526020018280546111bd90611eb5565b801561120a5780601f106111df5761010080835404028352916020019161120a565b820191906000526020600020905b8154815290600101906020018083116111ed57829003601f168201915b5050505050815260200160018201805461122390611eb5565b80601f016020809104026020016040519081016040528092919081815260200182805461124f90611eb5565b801561129c5780601f106112715761010080835404028352916020019161129c565b820191906000526020600020905b81548152906001019060200180831161127f57829003601f168201915b505050505081526020016002820180546112b590611eb5565b80601f01602080910402602001604051908101604052809291908181526020018280546112e190611eb5565b801561132e5780601f106113035761010080835404028352916020019161132e565b820191906000526020600020905b81548152906001019060200180831161131157829003601f168201915b505050918352505060038201546020808301919091526004830154600160a060020a03811660408085019190915260ff60a060020a909204821615156060808601919091526005860154608080870191909152600690960154909216151560a0948501528551928601519086015191860151948601519386015160c090960151929e509c509a50919850965090945092505050919395979092949650565b600681815481106113dc57600080fd5b600091825260209091200154600160a060020a0316905081565b6003602052816000526040600020818154811061141257600080fd5b90600052602060002001600091509150505481565b600081815260016020526040902060060154819060ff1661145d5760405160e560020a62461bcd0281526004016105ce9061205f565b6000828152600160205260408082208151610100810190925280548290829061148590611eb5565b80601f01602080910402602001604051908101604052809291908181526020018280546114b190611eb5565b80156114fe5780601f106114d3576101008083540402835291602001916114fe565b820191906000526020600020905b8154815290600101906020018083116114e157829003601f168201915b5050505050815260200160018201805461151790611eb5565b80601f016020809104026020016040519081016040528092919081815260200182805461154390611eb5565b80156115905780601f1061156557610100808354040283529160200191611590565b820191906000526020600020905b81548152906001019060200180831161157357829003601f168201915b505050505081526020016002820180546115a990611eb5565b80601f01602080910402602001604051908101604052809291908181526020018280546115d590611eb5565b80156116225780601f106115f757610100808354040283529160200191611622565b820191906000526020600020905b81548152906001019060200180831161160557829003601f168201915b5050509183525050600382015460208201526004820154600160a060020a038116604083015260ff60a060020a90910481161515606083015260058301546080830152600690920154909116151560a0918201528101519091506116cb5760405160e560020a62461bcd02815260206004820152601260248201527f44617461206973206e6f74207075626c6963000000000000000000000000000060448201526064016105ce565b8060c001513410156117225760405160e560020a62461bcd02815260206004820152601460248201527f496e73756666696369656e74207061796d656e7400000000000000000000000060448201526064016105ce565b33600160a060020a03168160800151600160a060020a03160361178a5760405160e560020a62461bcd02815260206004820152601d60248201527f43616e6e6f7420707572636861736520796f7572206f776e206461746100000060448201526064016105ce565b6080810151604051600160a060020a03909116903480156108fc02916000818181858888f193505050501580156117c5573d6000803e3d6000fd5b50600083815260046020908152604080832080546001810182559084529190922001805473ffffffffffffffffffffffffffffffffffffffff191633908117909155905184907fc776005376a22edd91c130b435664427f20b6603c25bc7792887dd5490fae0419061183a9034815260200190565b60405180910390a3505050565b60055460609060009067ffffffffffffffff81111561186857611868611abc565b604051908082528060200260200182016040528015611891578160200160208202803683370190505b5090506000805b6005548110156119435760016000600583815481106118b9576118b9612096565b9060005260206000200154815260200190815260200160002060040160149054906101000a900460ff161561193157600581815481106118fb576118fb612096565b906000526020600020015483838151811061191857611918612096565b60209081029190910101528161192d816120af565b9250505b8061193b816120af565b915050611898565b5060008167ffffffffffffffff81111561195f5761195f611abc565b604051908082528060200260200182016040528015611988578160200160208202803683370190505b50905060005b828110156119df578381815181106119a8576119a8612096565b60200260200101518282815181106119c2576119c2612096565b6020908102919091010152806119d7816120af565b91505061198e565b509392505050565b8035600160a060020a03811681146119fe57600080fd5b919050565b600060208284031215611a1557600080fd5b611a1e826119e7565b9392505050565b60005b83811015611a40578181015183820152602001611a28565b50506000910152565b60008151808452611a61816020860160208601611a25565b601f01601f19169290920160200192915050565b608081526000611a886080830187611a49565b8281036020840152611a9a8187611a49565b600160a060020a03959095166040840152505090151560609091015292915050565b60e060020a634e487b7102600052604160045260246000fd5b600082601f830112611ae657600080fd5b813567ffffffffffffffff80821115611b0157611b01611abc565b604051601f8301601f19908116603f01168101908282118183101715611b2957611b29611abc565b81604052838152866020858801011115611b4257600080fd5b836020870160208301376000602085830101528094505050505092915050565b600080600060608486031215611b7757600080fd5b833567ffffffffffffffff80821115611b8f57600080fd5b611b9b87838801611ad5565b94506020860135915080821115611bb157600080fd5b611bbd87838801611ad5565b93506040860135915080821115611bd357600080fd5b50611be086828701611ad5565b9150509250925092565b60008060408385031215611bfd57600080fd5b50508035926020909101359150565b60e060020a634e487b7102600052602160045260246000fd5b6020810160038310611c4a5760e060020a634e487b7102600052602160045260246000fd5b91905290565b6020808252825182820181905260009190848201906040850190845b81811015611c8857835183529284019291840191600101611c6c565b50909695505050505050565b60008060408385031215611ca757600080fd5b611cb0836119e7565b9150602083013560038110611cc457600080fd5b809150509250929050565b600060208284031215611ce157600080fd5b5035919050565b6000610100808352611cfc8184018c611a49565b90508281036020840152611d10818b611a49565b90508281036040840152611d24818a611a49565b60608401989098525050600160a060020a0394909416608085015291151560a084015260c0830152151560e0909101529392505050565b60008060408385031215611d6e57600080fd5b823567ffffffffffffffff80821115611d8657600080fd5b611d9286838701611ad5565b93506020850135915080821115611da857600080fd5b50611db585828601611ad5565b9150509250929050565b8415158152608060208201526000611dda6080830186611a49565b600160a060020a03949094166040830152506060015292915050565b60008060408385031215611e0957600080fd5b82359150611e19602084016119e7565b90509250929050565b60e081526000611e3560e083018a611a49565b8281036020840152611e47818a611a49565b90508281036040840152611e5b8189611a49565b60608401979097525050600160a060020a0393909316608084015290151560a083015260c0909101529392505050565b60008060408385031215611e9e57600080fd5b611ea7836119e7565b946020939093013593505050565b600281046001821680611ec957607f821691505b602082108103611eec5760e060020a634e487b7102600052602260045260246000fd5b50919050565b60008451611f04818460208901611a25565b600160a060020a03949094166c010000000000000000000000000291909301908152601481019190915260340192915050565b601f821115611f81576000818152602081206020601f86010481016020861015611f5e5750805b6020601f860104820191505b81811015611f7d57828155600101611f6a565b5050505b505050565b815167ffffffffffffffff811115611fa057611fa0611abc565b611fb481611fae8454611eb5565b84611f37565b602080601f831160018114611fed5760008415611fd15750858301515b60028086026008870290910a6000190419821617865550611f7d565b600085815260208120601f198616915b8281101561201c57888601518255948401946001909101908401611ffd565b508582101561203c57878501516008601f88160260020a60001904191681555b5050505050600202600101905550565b602081526000611a1e6020830184611a49565b60208082526013908201527f4461746120646f6573206e6f7420657869737400000000000000000000000000604082015260600190565b60e060020a634e487b7102600052603260045260246000fd5b6000600182016120d25760e060020a634e487b7102600052601160045260246000fd5b506001019056fea264697066735822122082768fac13a350cc35a1c8597fa2a1e807801664a44c873819d3df7bc255aba864736f6c63430008150033",
  "immutableReferences": {},
  "source": "// SPDX-License-Identifier: MIT\r\npragma solidity ^0.8.19;\r\n\r\ncontract MedicalDataRegistry {\r\n    enum Role {\r\n        None,\r\n        Patient,\r\n        Researcher\r\n    }\r\n    mapping(address => Role) public userRoles;\r\n\r\n    struct MedicalData {\r\n        string ipfsHash;\r\n        string patientName;\r\n        string dataType;\r\n        uint256 timestamp;\r\n        address owner;\r\n        bool isPublic;\r\n        uint256 price;\r\n        bool exists;\r\n    }\r\n\r\n    struct Patient {\r\n        string name;\r\n        string email;\r\n        address walletAddress;\r\n        bool isRegistered;\r\n    }\r\n\r\n    mapping(bytes32 => MedicalData) public medicalDataRegistry;\r\n    mapping(address => Patient) public patients;\r\n    mapping(address => bytes32[]) public patientDataHashes;\r\n    mapping(bytes32 => address[]) public dataAccessors;\r\n\r\n    bytes32[] public allDataHashes;\r\n    address[] public allPatients;\r\n\r\n    event DataRegistered(\r\n        bytes32 indexed dataHash,\r\n        address indexed owner,\r\n        string ipfsHash\r\n    );\r\n    event DataPurchased(\r\n        bytes32 indexed dataHash,\r\n        address indexed buyer,\r\n        uint256 price\r\n    );\r\n    event PatientRegistered(address indexed patient, string name);\r\n    event DataMadePublic(bytes32 indexed dataHash, uint256 price);\r\n\r\n    modifier onlyOwner(bytes32 dataHash) {\r\n        require(\r\n            medicalDataRegistry[dataHash].owner == msg.sender,\r\n            \"Not the data owner\"\r\n        );\r\n        _;\r\n    }\r\n\r\n    modifier dataExists(bytes32 dataHash) {\r\n        require(medicalDataRegistry[dataHash].exists, \"Data does not exist\");\r\n        _;\r\n    }\r\n\r\n    function registerPatient(string memory _name, string memory _email) public {\r\n        require(\r\n            !patients[msg.sender].isRegistered,\r\n            \"Patient already registered\"\r\n        );\r\n\r\n        patients[msg.sender] = Patient({\r\n            name: _name,\r\n            email: _email,\r\n            walletAddress: msg.sender,\r\n            isRegistered: true\r\n        });\r\n\r\n        allPatients.push(msg.sender);\r\n        emit PatientRegistered(msg.sender, _name);\r\n    }\r\n\r\n    function registerMedicalData(\r\n        string memory _ipfsHash,\r\n        string memory _patientName,\r\n        string memory _dataType\r\n    ) public returns (bytes32) {\r\n        require(patients[msg.sender].isRegistered, \"Patient not registered\");\r\n\r\n        bytes32 dataHash = keccak256(\r\n            abi.encodePacked(_ipfsHash, msg.sender, block.timestamp)\r\n        );\r\n\r\n        require(\r\n            !medicalDataRegistry[dataHash].exists,\r\n            \"Data already registered\"\r\n        );\r\n\r\n        medicalDataRegistry[dataHash] = MedicalData({\r\n            ipfsHash: _ipfsHash,\r\n            patientName: _patientName,\r\n            dataType: _dataType,\r\n            timestamp: block.timestamp,\r\n            owner: msg.sender,\r\n            isPublic: false,\r\n            price: 0,\r\n            exists: true\r\n        });\r\n\r\n        patientDataHashes[msg.sender].push(dataHash);\r\n        allDataHashes.push(dataHash);\r\n\r\n        emit DataRegistered(dataHash, msg.sender, _ipfsHash);\r\n        return dataHash;\r\n    }\r\n\r\n    function makeDataPublic(\r\n        bytes32 _dataHash,\r\n        uint256 _price\r\n    ) public onlyOwner(_dataHash) dataExists(_dataHash) {\r\n        medicalDataRegistry[_dataHash].isPublic = true;\r\n        medicalDataRegistry[_dataHash].price = _price;\r\n\r\n        emit DataMadePublic(_dataHash, _price);\r\n    }\r\n\r\n    function purchaseDataAccess(\r\n        bytes32 _dataHash\r\n    ) public payable dataExists(_dataHash) {\r\n        MedicalData memory data = medicalDataRegistry[_dataHash];\r\n        require(data.isPublic, \"Data is not public\");\r\n        require(msg.value >= data.price, \"Insufficient payment\");\r\n        require(data.owner != msg.sender, \"Cannot purchase your own data\");\r\n\r\n        // Transfer payment to data owner\r\n        payable(data.owner).transfer(msg.value);\r\n\r\n        // Grant access\r\n        dataAccessors[_dataHash].push(msg.sender);\r\n\r\n        emit DataPurchased(_dataHash, msg.sender, msg.value);\r\n    }\r\n\r\n    function verifyDataIntegrity(\r\n        bytes32 _dataHash\r\n    )\r\n        public\r\n        view\r\n        dataExists(_dataHash)\r\n        returns (bool, string memory, address, uint256)\r\n    {\r\n        MedicalData memory data = medicalDataRegistry[_dataHash];\r\n        return (true, data.ipfsHash, data.owner, data.timestamp);\r\n    }\r\n\r\n    function getPublicDataList() public view returns (bytes32[] memory) {\r\n        bytes32[] memory publicData = new bytes32[](allDataHashes.length);\r\n        uint256 publicCount = 0;\r\n\r\n        for (uint256 i = 0; i < allDataHashes.length; i++) {\r\n            if (medicalDataRegistry[allDataHashes[i]].isPublic) {\r\n                publicData[publicCount] = allDataHashes[i];\r\n                publicCount++;\r\n            }\r\n        }\r\n\r\n        // Resize array to actual count\r\n        bytes32[] memory result = new bytes32[](publicCount);\r\n        for (uint256 i = 0; i < publicCount; i++) {\r\n            result[i] = publicData[i];\r\n        }\r\n\r\n        return result;\r\n    }\r\n\r\n    function getPatientData(\r\n        address _patient\r\n    ) public view returns (bytes32[] memory) {\r\n        return patientDataHashes[_patient];\r\n    }\r\n\r\n    function hasAccessToData(\r\n        bytes32 _dataHash,\r\n        address _user\r\n    ) public view returns (bool) {\r\n        if (medicalDataRegistry[_dataHash].owner == _user) {\r\n            return true;\r\n        }\r\n\r\n        address[] memory accessors = dataAccessors[_dataHash];\r\n        for (uint256 i = 0; i < accessors.length; i++) {\r\n            if (accessors[i] == _user) {\r\n                return true;\r\n            }\r\n        }\r\n\r\n        return false;\r\n    }\r\n\r\n    function getMedicalData(\r\n        bytes32 _dataHash\r\n    )\r\n        public\r\n        view\r\n        dataExists(_dataHash)\r\n        returns (\r\n            string memory ipfsHash,\r\n            string memory patientName,\r\n            string memory dataType,\r\n            uint256 timestamp,\r\n            address owner,\r\n            bool isPublic,\r\n            uint256 price\r\n        )\r\n    {\r\n        MedicalData memory data = medicalDataRegistry[_dataHash];\r\n        return (\r\n            data.ipfsHash,\r\n            data.patientName,\r\n            data.dataType,\r\n            data.timestamp,\r\n            data.owner,\r\n            data.isPublic,\r\n            data.price\r\n        );\r\n    }\r\n\r\n    function setRole(address user, Role role) public {\r\n        userRoles[user] = role;\r\n    }\r\n\r\n    function getRole(address user) public view returns (Role) {\r\n        return userRoles[user];\r\n    }\r\n}\r\n",
  "sourcePath": "C:\\Users\\gosha\\OneDrive\\Documents\\GitHub\\decent-med-data\\contracts\\MedicalDataRegistry.sol",
  "compiler": {
    "name": "solc",
    "version": "0.8.21+commit.d9974bed.Emscripten.clang"
  },
  "schemaVersion": "3.4.16",
  "updatedAt": "2025-11-04T12:13:31.845Z",
  "networkType": "ethereum",
  "devdoc": {
    "kind": "dev",
    "methods": {},
    "version": 1
  },
  "userdoc": {
    "kind": "user",
    "methods": {},
    "version": 1
  }
}