{
  "contractName": "MedicalDataRegistry",
  "abi": [
    {
      "anonymous": false,
      "inputs": [
        {
          "indexed": true,
          "internalType": "bytes32",
          "name": "dataHash",
          "type": "bytes32"
        },
        {
          "indexed": false,
          "internalType": "uint256",
          "name": "price",
          "type": "uint256"
        }
      ],
      "name": "DataMadePublic",
      "type": "event"
    },
    {
      "anonymous": false,
      "inputs": [
        {
          "indexed": true,
          "internalType": "bytes32",
          "name": "dataHash",
          "type": "bytes32"
        },
        {
          "indexed": true,
          "internalType": "address",
          "name": "buyer",
          "type": "address"
        },
        {
          "indexed": false,
          "internalType": "uint256",
          "name": "price",
          "type": "uint256"
        }
      ],
      "name": "DataPurchased",
      "type": "event"
    },
    {
      "anonymous": false,
      "inputs": [
        {
          "indexed": true,
          "internalType": "bytes32",
          "name": "dataHash",
          "type": "bytes32"
        },
        {
          "indexed": true,
          "internalType": "address",
          "name": "owner",
          "type": "address"
        },
        {
          "indexed": false,
          "internalType": "string",
          "name": "ipfsHash",
          "type": "string"
        }
      ],
      "name": "DataRegistered",
      "type": "event"
    },
    {
      "anonymous": false,
      "inputs": [
        {
          "indexed": true,
          "internalType": "address",
          "name": "patient",
          "type": "address"
        },
        {
          "indexed": false,
          "internalType": "string",
          "name": "name",
          "type": "string"
        }
      ],
      "name": "PatientRegistered",
      "type": "event"
    },
    {
      "inputs": [
        {
          "internalType": "uint256",
          "name": "",
          "type": "uint256"
        }
      ],
      "name": "allDataHashes",
      "outputs": [
        {
          "internalType": "bytes32",
          "name": "",
          "type": "bytes32"
        }
      ],
      "stateMutability": "view",
      "type": "function"
    },
    {
      "inputs": [
        {
          "internalType": "uint256",
          "name": "",
          "type": "uint256"
        }
      ],
      "name": "allPatients",
      "outputs": [
        {
          "internalType": "address",
          "name": "",
          "type": "address"
        }
      ],
      "stateMutability": "view",
      "type": "function"
    },
    {
      "inputs": [
        {
          "internalType": "bytes32",
          "name": "",
          "type": "bytes32"
        },
        {
          "internalType": "uint256",
          "name": "",
          "type": "uint256"
        }
      ],
      "name": "dataAccessors",
      "outputs": [
        {
          "internalType": "address",
          "name": "",
          "type": "address"
        }
      ],
      "stateMutability": "view",
      "type": "function"
    },
    {
      "inputs": [
        {
          "internalType": "bytes32",
          "name": "",
          "type": "bytes32"
        }
      ],
      "name": "medicalDataRegistry",
      "outputs": [
        {
          "internalType": "string",
          "name": "ipfsHash",
          "type": "string"
        },
        {
          "internalType": "string",
          "name": "patientName",
          "type": "string"
        },
        {
          "internalType": "string",
          "name": "dataType",
          "type": "string"
        },
        {
          "internalType": "uint256",
          "name": "timestamp",
          "type": "uint256"
        },
        {
          "internalType": "address",
          "name": "owner",
          "type": "address"
        },
        {
          "internalType": "bool",
          "name": "isPublic",
          "type": "bool"
        },
        {
          "internalType": "uint256",
          "name": "price",
          "type": "uint256"
        },
        {
          "internalType": "bool",
          "name": "exists",
          "type": "bool"
        }
      ],
      "stateMutability": "view",
      "type": "function"
    },
    {
      "inputs": [
        {
          "internalType": "address",
          "name": "",
          "type": "address"
        },
        {
          "internalType": "uint256",
          "name": "",
          "type": "uint256"
        }
      ],
      "name": "patientDataHashes",
      "outputs": [
        {
          "internalType": "bytes32",
          "name": "",
          "type": "bytes32"
        }
      ],
      "stateMutability": "view",
      "type": "function"
    },
    {
      "inputs": [
        {
          "internalType": "address",
          "name": "",
          "type": "address"
        }
      ],
      "name": "patients",
      "outputs": [
        {
          "internalType": "string",
          "name": "name",
          "type": "string"
        },
        {
          "internalType": "string",
          "name": "email",
          "type": "string"
        },
        {
          "internalType": "address",
          "name": "walletAddress",
          "type": "address"
        },
        {
          "internalType": "bool",
          "name": "isRegistered",
          "type": "bool"
        }
      ],
      "stateMutability": "view",
      "type": "function"
    },
    {
      "inputs": [
        {
          "internalType": "string",
          "name": "_name",
          "type": "string"
        },
        {
          "internalType": "string",
          "name": "_email",
          "type": "string"
        }
      ],
      "name": "registerPatient",
      "outputs": [],
      "stateMutability": "nonpayable",
      "type": "function"
    },
    {
      "inputs": [
        {
          "internalType": "string",
          "name": "_ipfsHash",
          "type": "string"
        },
        {
          "internalType": "string",
          "name": "_patientName",
          "type": "string"
        },
        {
          "internalType": "string",
          "name": "_dataType",
          "type": "string"
        }
      ],
      "name": "registerMedicalData",
      "outputs": [
        {
          "internalType": "bytes32",
          "name": "",
          "type": "bytes32"
        }
      ],
      "stateMutability": "nonpayable",
      "type": "function"
    },
    {
      "inputs": [
        {
          "internalType": "bytes32",
          "name": "_dataHash",
          "type": "bytes32"
        },
        {
          "internalType": "uint256",
          "name": "_price",
          "type": "uint256"
        }
      ],
      "name": "makeDataPublic",
      "outputs": [],
      "stateMutability": "nonpayable",
      "type": "function"
    },
    {
      "inputs": [
        {
          "internalType": "bytes32",
          "name": "_dataHash",
          "type": "bytes32"
        }
      ],
      "name": "purchaseDataAccess",
      "outputs": [],
      "stateMutability": "payable",
      "type": "function"
    },
    {
      "inputs": [
        {
          "internalType": "bytes32",
          "name": "_dataHash",
          "type": "bytes32"
        }
      ],
      "name": "verifyDataIntegrity",
      "outputs": [
        {
          "internalType": "bool",
          "name": "",
          "type": "bool"
        },
        {
          "internalType": "string",
          "name": "",
          "type": "string"
        },
        {
          "internalType": "address",
          "name": "",
          "type": "address"
        },
        {
          "internalType": "uint256",
          "name": "",
          "type": "uint256"
        }
      ],
      "stateMutability": "view",
      "type": "function"
    },
    {
      "inputs": [],
      "name": "getPublicDataList",
      "outputs": [
        {
          "internalType": "bytes32[]",
          "name": "",
          "type": "bytes32[]"
        }
      ],
      "stateMutability": "view",
      "type": "function"
    },
    {
      "inputs": [
        {
          "internalType": "address",
          "name": "_patient",
          "type": "address"
        }
      ],
      "name": "getPatientData",
      "outputs": [
        {
          "internalType": "bytes32[]",
          "name": "",
          "type": "bytes32[]"
        }
      ],
      "stateMutability": "view",
      "type": "function"
    },
    {
      "inputs": [
        {
          "internalType": "bytes32",
          "name": "_dataHash",
          "type": "bytes32"
        },
        {
          "internalType": "address",
          "name": "_user",
          "type": "address"
        }
      ],
      "name": "hasAccessToData",
      "outputs": [
        {
          "internalType": "bool",
          "name": "",
          "type": "bool"
        }
      ],
      "stateMutability": "view",
      "type": "function"
    },
    {
      "inputs": [
        {
          "internalType": "bytes32",
          "name": "_dataHash",
          "type": "bytes32"
        }
      ],
      "name": "getMedicalData",
      "outputs": [
        {
          "internalType": "string",
          "name": "ipfsHash",
          "type": "string"
        },
        {
          "internalType": "string",
          "name": "patientName",
          "type": "string"
        },
        {
          "internalType": "string",
          "name": "dataType",
          "type": "string"
        },
        {
          "internalType": "uint256",
          "name": "timestamp",
          "type": "uint256"
        },
        {
          "internalType": "address",
          "name": "owner",
          "type": "address"
        },
        {
          "internalType": "bool",
          "name": "isPublic",
          "type": "bool"
        },
        {
          "internalType": "uint256",
          "name": "price",
          "type": "uint256"
        }
      ],
      "stateMutability": "view",
      "type": "function"
    }
  ],
  "bytecode": "0x608060405234801561000f575f80fd5b50612df88061001d5f395ff3fe6080604052600436106100e7575f3560e01c8063881d5e4d11610089578063d8f608df11610058578063d8f608df1461036a578063d9366ba2146103a6578063e11726f6146103e2578063ebbe2e3e146103fe576100e7565b8063881d5e4d1461028557806391a806c8146102ad5780639dc47215146102ec578063d6a63ddf14610328576100e7565b806348e81852116100c557806348e81852146101a257806377d37dbb146101de57806380911fa4146102215780638573bb8e14610249576100e7565b80630869cfbc146100eb57806318e38be61461012a5780631b9d522814610166575b5f80fd5b3480156100f6575f80fd5b50610111600480360381019061010c9190611e80565b610428565b6040516101219493929190611f5e565b60405180910390f35b348015610135575f80fd5b50610150600480360381019061014b91906120db565b61058c565b60405161015d9190612197565b60405180910390f35b348015610171575f80fd5b5061018c6004803603810190610187919061220d565b6108ca565b604051610199919061224b565b60405180910390f35b3480156101ad575f80fd5b506101c860048036038101906101c39190611e80565b610912565b6040516101d5919061231b565b60405180910390f35b3480156101e9575f80fd5b5061020460048036038101906101ff919061233b565b6109a5565b604051610218989796959493929190612375565b60405180910390f35b34801561022c575f80fd5b5061024760048036038101906102429190612406565b610bb2565b005b348015610254575f80fd5b5061026f600480360381019061026a919061247c565b610dfc565b60405161027c9190612197565b60405180910390f35b348015610290575f80fd5b506102ab60048036038101906102a6919061220d565b610e1c565b005b3480156102b8575f80fd5b506102d360048036038101906102ce919061233b565b610f9f565b6040516102e394939291906124a7565b60405180910390f35b3480156102f7575f80fd5b50610312600480360381019061030d91906124f1565b611291565b60405161031f919061252f565b60405180910390f35b348015610333575f80fd5b5061034e6004803603810190610349919061233b565b611418565b6040516103619796959493929190612548565b60405180910390f35b348015610375575f80fd5b50610390600480360381019061038b919061247c565b61172a565b60405161039d919061224b565b60405180910390f35b3480156103b1575f80fd5b506103cc60048036038101906103c791906125ca565b611765565b6040516103d99190612197565b60405180910390f35b6103fc60048036038101906103f7919061233b565b611790565b005b348015610409575f80fd5b50610412611c64565b60405161041f919061231b565b60405180910390f35b6001602052805f5260405f205f91509050805f01805461044790612635565b80601f016020809104026020016040519081016040528092919081815260200182805461047390612635565b80156104be5780601f10610495576101008083540402835291602001916104be565b820191905f5260205f20905b8154815290600101906020018083116104a157829003601f168201915b5050505050908060010180546104d390612635565b80601f01602080910402602001604051908101604052809291908181526020018280546104ff90612635565b801561054a5780601f106105215761010080835404028352916020019161054a565b820191905f5260205f20905b81548152906001019060200180831161052d57829003601f168201915b505050505090806002015f9054906101000a900473ffffffffffffffffffffffffffffffffffffffff16908060020160149054906101000a900460ff16905084565b5f60015f3373ffffffffffffffffffffffffffffffffffffffff1673ffffffffffffffffffffffffffffffffffffffff1681526020019081526020015f2060020160149054906101000a900460ff1661061a576040517f08c379a0000000000000000000000000000000000000000000000000000000008152600401610611906126af565b60405180910390fd5b5f8433426040516020016106309392919061276c565b6040516020818303038152906040528051906020012090505f808281526020019081526020015f206006015f9054906101000a900460ff16156106a8576040517f08c379a000000000000000000000000000000000000000000000000000000000815260040161069f906127ee565b60405180910390fd5b6040518061010001604052808681526020018581526020018481526020014281526020013373ffffffffffffffffffffffffffffffffffffffff1681526020015f151581526020015f8152602001600115158152505f808381526020019081526020015f205f820151815f01908161072091906129a9565b50602082015181600101908161073691906129a9565b50604082015181600201908161074c91906129a9565b50606082015181600301556080820151816004015f6101000a81548173ffffffffffffffffffffffffffffffffffffffff021916908373ffffffffffffffffffffffffffffffffffffffff16021790555060a08201518160040160146101000a81548160ff02191690831515021790555060c0820151816005015560e0820151816006015f6101000a81548160ff02191690831515021790555090505060025f3373ffffffffffffffffffffffffffffffffffffffff1673ffffffffffffffffffffffffffffffffffffffff1681526020019081526020015f2081908060018154018082558091505060019003905f5260205f20015f9091909190915055600481908060018154018082558091505060019003905f5260205f20015f90919091909150553373ffffffffffffffffffffffffffffffffffffffff16817fb545e385d9f05d6f253be1aac34ba21212dcdfa5581bf301cba1b9c26d0972c3876040516108b79190612a78565b60405180910390a3809150509392505050565b6003602052815f5260405f2081815481106108e3575f80fd5b905f5260205f20015f915091509054906101000a900473ffffffffffffffffffffffffffffffffffffffff1681565b606060025f8373ffffffffffffffffffffffffffffffffffffffff1673ffffffffffffffffffffffffffffffffffffffff1681526020019081526020015f2080548060200260200160405190810160405280929190818152602001828054801561099957602002820191905f5260205f20905b815481526020019060010190808311610985575b50505050509050919050565b5f602052805f5260405f205f91509050805f0180546109c390612635565b80601f01602080910402602001604051908101604052809291908181526020018280546109ef90612635565b8015610a3a5780601f10610a1157610100808354040283529160200191610a3a565b820191905f5260205f20905b815481529060010190602001808311610a1d57829003601f168201915b505050505090806001018054610a4f90612635565b80601f0160208091040260200160405190810160405280929190818152602001828054610a7b90612635565b8015610ac65780601f10610a9d57610100808354040283529160200191610ac6565b820191905f5260205f20905b815481529060010190602001808311610aa957829003601f168201915b505050505090806002018054610adb90612635565b80601f0160208091040260200160405190810160405280929190818152602001828054610b0790612635565b8015610b525780601f10610b2957610100808354040283529160200191610b52565b820191905f5260205f20905b815481529060010190602001808311610b3557829003601f168201915b505050505090806003015490806004015f9054906101000a900473ffffffffffffffffffffffffffffffffffffffff16908060040160149054906101000a900460ff1690806005015490806006015f9054906101000a900460ff16905088565b60015f3373ffffffffffffffffffffffffffffffffffffffff1673ffffffffffffffffffffffffffffffffffffffff1681526020019081526020015f2060020160149054906101000a900460ff1615610c40576040517f08c379a0000000000000000000000000000000000000000000000000000000008152600401610c3790612ae2565b60405180910390fd5b60405180608001604052808381526020018281526020013373ffffffffffffffffffffffffffffffffffffffff1681526020016001151581525060015f3373ffffffffffffffffffffffffffffffffffffffff1673ffffffffffffffffffffffffffffffffffffffff1681526020019081526020015f205f820151815f019081610cca91906129a9565b506020820151816001019081610ce091906129a9565b506040820151816002015f6101000a81548173ffffffffffffffffffffffffffffffffffffffff021916908373ffffffffffffffffffffffffffffffffffffffff16021790555060608201518160020160146101000a81548160ff021916908315150217905550905050600533908060018154018082558091505060019003905f5260205f20015f9091909190916101000a81548173ffffffffffffffffffffffffffffffffffffffff021916908373ffffffffffffffffffffffffffffffffffffffff1602179055503373ffffffffffffffffffffffffffffffffffffffff167fc85b128388b9c331a2a5485dce4cd0f3db9f7c279d327ce95d6d39d6c94644c783604051610df09190612a78565b60405180910390a25050565b60048181548110610e0b575f80fd5b905f5260205f20015f915090505481565b813373ffffffffffffffffffffffffffffffffffffffff165f808381526020019081526020015f206004015f9054906101000a900473ffffffffffffffffffffffffffffffffffffffff1673ffffffffffffffffffffffffffffffffffffffff1614610ebd576040517f08c379a0000000000000000000000000000000000000000000000000000000008152600401610eb490612b4a565b60405180910390fd5b825f808281526020019081526020015f206006015f9054906101000a900460ff16610f1d576040517f08c379a0000000000000000000000000000000000000000000000000000000008152600401610f1490612bb2565b60405180910390fd5b60015f808681526020019081526020015f2060040160146101000a81548160ff021916908315150217905550825f808681526020019081526020015f2060050181905550837f8b500b17bde807c0d81ceb0ef2381256613fb5d56f0a5956c8fb504236ea624284604051610f919190612bd0565b60405180910390a250505050565b5f60605f80845f808281526020019081526020015f206006015f9054906101000a900460ff16611004576040517f08c379a0000000000000000000000000000000000000000000000000000000008152600401610ffb90612bb2565b60405180910390fd5b5f805f8881526020019081526020015f20604051806101000160405290815f8201805461103090612635565b80601f016020809104026020016040519081016040528092919081815260200182805461105c90612635565b80156110a75780601f1061107e576101008083540402835291602001916110a7565b820191905f5260205f20905b81548152906001019060200180831161108a57829003601f168201915b505050505081526020016001820180546110c090612635565b80601f01602080910402602001604051908101604052809291908181526020018280546110ec90612635565b80156111375780601f1061110e57610100808354040283529160200191611137565b820191905f5260205f20905b81548152906001019060200180831161111a57829003601f168201915b5050505050815260200160028201805461115090612635565b80601f016020809104026020016040519081016040528092919081815260200182805461117c90612635565b80156111c75780601f1061119e576101008083540402835291602001916111c7565b820191905f5260205f20905b8154815290600101906020018083116111aa57829003601f168201915b5050505050815260200160038201548152602001600482015f9054906101000a900473ffffffffffffffffffffffffffffffffffffffff1673ffffffffffffffffffffffffffffffffffffffff1673ffffffffffffffffffffffffffffffffffffffff1681526020016004820160149054906101000a900460ff1615151515815260200160058201548152602001600682015f9054906101000a900460ff16151515158152505090506001815f015182608001518360600151955095509550955050509193509193565b5f8173ffffffffffffffffffffffffffffffffffffffff165f808581526020019081526020015f206004015f9054906101000a900473ffffffffffffffffffffffffffffffffffffffff1673ffffffffffffffffffffffffffffffffffffffff16036113005760019050611412565b5f60035f8581526020019081526020015f2080548060200260200160405190810160405280929190818152602001828054801561138f57602002820191905f5260205f20905b815f9054906101000a900473ffffffffffffffffffffffffffffffffffffffff1673ffffffffffffffffffffffffffffffffffffffff1681526020019060010190808311611346575b505050505090505f5b815181101561140c578373ffffffffffffffffffffffffffffffffffffffff168282815181106113cb576113ca612be9565b5b602002602001015173ffffffffffffffffffffffffffffffffffffffff16036113f957600192505050611412565b808061140490612c43565b915050611398565b505f9150505b92915050565b60608060605f805f80875f808281526020019081526020015f206006015f9054906101000a900460ff16611481576040517f08c379a000000000000000000000000000000000000000000000000000000000815260040161147890612bb2565b60405180910390fd5b5f805f8b81526020019081526020015f20604051806101000160405290815f820180546114ad90612635565b80601f01602080910402602001604051908101604052809291908181526020018280546114d990612635565b80156115245780601f106114fb57610100808354040283529160200191611524565b820191905f5260205f20905b81548152906001019060200180831161150757829003601f168201915b5050505050815260200160018201805461153d90612635565b80601f016020809104026020016040519081016040528092919081815260200182805461156990612635565b80156115b45780601f1061158b576101008083540402835291602001916115b4565b820191905f5260205f20905b81548152906001019060200180831161159757829003601f168201915b505050505081526020016002820180546115cd90612635565b80601f01602080910402602001604051908101604052809291908181526020018280546115f990612635565b80156116445780601f1061161b57610100808354040283529160200191611644565b820191905f5260205f20905b81548152906001019060200180831161162757829003601f168201915b5050505050815260200160038201548152602001600482015f9054906101000a900473ffffffffffffffffffffffffffffffffffffffff1673ffffffffffffffffffffffffffffffffffffffff1673ffffffffffffffffffffffffffffffffffffffff1681526020016004820160149054906101000a900460ff1615151515815260200160058201548152602001600682015f9054906101000a900460ff1615151515815250509050805f015181602001518260400151836060015184608001518560a001518660c0015198509850985098509850985098505050919395979092949650565b60058181548110611739575f80fd5b905f5260205f20015f915054906101000a900473ffffffffffffffffffffffffffffffffffffffff1681565b6002602052815f5260405f20818154811061177e575f80fd5b905f5260205f20015f91509150505481565b805f808281526020019081526020015f206006015f9054906101000a900460ff166117f0576040517f08c379a00000000000000000000000000000000000000000000000000000000081526004016117e790612bb2565b60405180910390fd5b5f805f8481526020019081526020015f20604051806101000160405290815f8201805461181c90612635565b80601f016020809104026020016040519081016040528092919081815260200182805461184890612635565b80156118935780601f1061186a57610100808354040283529160200191611893565b820191905f5260205f20905b81548152906001019060200180831161187657829003601f168201915b505050505081526020016001820180546118ac90612635565b80601f01602080910402602001604051908101604052809291908181526020018280546118d890612635565b80156119235780601f106118fa57610100808354040283529160200191611923565b820191905f5260205f20905b81548152906001019060200180831161190657829003601f168201915b5050505050815260200160028201805461193c90612635565b80601f016020809104026020016040519081016040528092919081815260200182805461196890612635565b80156119b35780601f1061198a576101008083540402835291602001916119b3565b820191905f5260205f20905b81548152906001019060200180831161199657829003601f168201915b5050505050815260200160038201548152602001600482015f9054906101000a900473ffffffffffffffffffffffffffffffffffffffff1673ffffffffffffffffffffffffffffffffffffffff1673ffffffffffffffffffffffffffffffffffffffff1681526020016004820160149054906101000a900460ff1615151515815260200160058201548152602001600682015f9054906101000a900460ff16151515158152505090508060a00151611aa0576040517f08c379a0000000000000000000000000000000000000000000000000000000008152600401611a9790612cd4565b60405180910390fd5b8060c00151341015611ae7576040517f08c379a0000000000000000000000000000000000000000000000000000000008152600401611ade90612d3c565b60405180910390fd5b3373ffffffffffffffffffffffffffffffffffffffff16816080015173ffffffffffffffffffffffffffffffffffffffff1603611b59576040517f08c379a0000000000000000000000000000000000000000000000000000000008152600401611b5090612da4565b60405180910390fd5b806080015173ffffffffffffffffffffffffffffffffffffffff166108fc3490811502906040515f60405180830381858888f19350505050158015611ba0573d5f803e3d5ffd5b5060035f8481526020019081526020015f2033908060018154018082558091505060019003905f5260205f20015f9091909190916101000a81548173ffffffffffffffffffffffffffffffffffffffff021916908373ffffffffffffffffffffffffffffffffffffffff1602179055503373ffffffffffffffffffffffffffffffffffffffff16837fc776005376a22edd91c130b435664427f20b6603c25bc7792887dd5490fae04134604051611c579190612bd0565b60405180910390a3505050565b60605f60048054905067ffffffffffffffff811115611c8657611c85611fb7565b5b604051908082528060200260200182016040528015611cb45781602001602082028036833780820191505090505b5090505f805b600480549050811015611d67575f8060048381548110611cdd57611cdc612be9565b5b905f5260205f20015481526020019081526020015f2060040160149054906101000a900460ff1615611d545760048181548110611d1d57611d1c612be9565b5b905f5260205f200154838381518110611d3957611d38612be9565b5b6020026020010181815250508180611d5090612c43565b9250505b8080611d5f90612c43565b915050611cba565b505f8167ffffffffffffffff811115611d8357611d82611fb7565b5b604051908082528060200260200182016040528015611db15781602001602082028036833780820191505090505b5090505f5b82811015611e0b57838181518110611dd157611dd0612be9565b5b6020026020010151828281518110611dec57611deb612be9565b5b6020026020010181815250508080611e0390612c43565b915050611db6565b5080935050505090565b5f604051905090565b5f80fd5b5f80fd5b5f73ffffffffffffffffffffffffffffffffffffffff82169050919050565b5f611e4f82611e26565b9050919050565b611e5f81611e45565b8114611e69575f80fd5b50565b5f81359050611e7a81611e56565b92915050565b5f60208284031215611e9557611e94611e1e565b5b5f611ea284828501611e6c565b91505092915050565b5f81519050919050565b5f82825260208201905092915050565b5f5b83811015611ee2578082015181840152602081019050611ec7565b5f8484015250505050565b5f601f19601f8301169050919050565b5f611f0782611eab565b611f118185611eb5565b9350611f21818560208601611ec5565b611f2a81611eed565b840191505092915050565b611f3e81611e45565b82525050565b5f8115159050919050565b611f5881611f44565b82525050565b5f6080820190508181035f830152611f768187611efd565b90508181036020830152611f8a8186611efd565b9050611f996040830185611f35565b611fa66060830184611f4f565b95945050505050565b5f80fd5b5f80fd5b7f4e487b71000000000000000000000000000000000000000000000000000000005f52604160045260245ffd5b611fed82611eed565b810181811067ffffffffffffffff8211171561200c5761200b611fb7565b5b80604052505050565b5f61201e611e15565b905061202a8282611fe4565b919050565b5f67ffffffffffffffff82111561204957612048611fb7565b5b61205282611eed565b9050602081019050919050565b828183375f83830152505050565b5f61207f61207a8461202f565b612015565b90508281526020810184848401111561209b5761209a611fb3565b5b6120a684828561205f565b509392505050565b5f82601f8301126120c2576120c1611faf565b5b81356120d284826020860161206d565b91505092915050565b5f805f606084860312156120f2576120f1611e1e565b5b5f84013567ffffffffffffffff81111561210f5761210e611e22565b5b61211b868287016120ae565b935050602084013567ffffffffffffffff81111561213c5761213b611e22565b5b612148868287016120ae565b925050604084013567ffffffffffffffff81111561216957612168611e22565b5b612175868287016120ae565b9150509250925092565b5f819050919050565b6121918161217f565b82525050565b5f6020820190506121aa5f830184612188565b92915050565b6121b98161217f565b81146121c3575f80fd5b50565b5f813590506121d4816121b0565b92915050565b5f819050919050565b6121ec816121da565b81146121f6575f80fd5b50565b5f81359050612207816121e3565b92915050565b5f806040838503121561222357612222611e1e565b5b5f612230858286016121c6565b9250506020612241858286016121f9565b9150509250929050565b5f60208201905061225e5f830184611f35565b92915050565b5f81519050919050565b5f82825260208201905092915050565b5f819050602082019050919050565b6122968161217f565b82525050565b5f6122a7838361228d565b60208301905092915050565b5f602082019050919050565b5f6122c982612264565b6122d3818561226e565b93506122de8361227e565b805f5b8381101561230e5781516122f5888261229c565b9750612300836122b3565b9250506001810190506122e1565b5085935050505092915050565b5f6020820190508181035f83015261233381846122bf565b905092915050565b5f602082840312156123505761234f611e1e565b5b5f61235d848285016121c6565b91505092915050565b61236f816121da565b82525050565b5f610100820190508181035f83015261238e818b611efd565b905081810360208301526123a2818a611efd565b905081810360408301526123b68189611efd565b90506123c56060830188612366565b6123d26080830187611f35565b6123df60a0830186611f4f565b6123ec60c0830185612366565b6123f960e0830184611f4f565b9998505050505050505050565b5f806040838503121561241c5761241b611e1e565b5b5f83013567ffffffffffffffff81111561243957612438611e22565b5b612445858286016120ae565b925050602083013567ffffffffffffffff81111561246657612465611e22565b5b612472858286016120ae565b9150509250929050565b5f6020828403121561249157612490611e1e565b5b5f61249e848285016121f9565b91505092915050565b5f6080820190506124ba5f830187611f4f565b81810360208301526124cc8186611efd565b90506124db6040830185611f35565b6124e86060830184612366565b95945050505050565b5f806040838503121561250757612506611e1e565b5b5f612514858286016121c6565b925050602061252585828601611e6c565b9150509250929050565b5f6020820190506125425f830184611f4f565b92915050565b5f60e0820190508181035f830152612560818a611efd565b905081810360208301526125748189611efd565b905081810360408301526125888188611efd565b90506125976060830187612366565b6125a46080830186611f35565b6125b160a0830185611f4f565b6125be60c0830184612366565b98975050505050505050565b5f80604083850312156125e0576125df611e1e565b5b5f6125ed85828601611e6c565b92505060206125fe858286016121f9565b9150509250929050565b7f4e487b71000000000000000000000000000000000000000000000000000000005f52602260045260245ffd5b5f600282049050600182168061264c57607f821691505b60208210810361265f5761265e612608565b5b50919050565b7f50617469656e74206e6f742072656769737465726564000000000000000000005f82015250565b5f612699601683611eb5565b91506126a482612665565b602082019050919050565b5f6020820190508181035f8301526126c68161268d565b9050919050565b5f81905092915050565b5f6126e182611eab565b6126eb81856126cd565b93506126fb818560208601611ec5565b80840191505092915050565b5f8160601b9050919050565b5f61271d82612707565b9050919050565b5f61272e82612713565b9050919050565b61274661274182611e45565b612724565b82525050565b5f819050919050565b612766612761826121da565b61274c565b82525050565b5f61277782866126d7565b91506127838285612735565b6014820191506127938284612755565b602082019150819050949350505050565b7f4461746120616c726561647920726567697374657265640000000000000000005f82015250565b5f6127d8601783611eb5565b91506127e3826127a4565b602082019050919050565b5f6020820190508181035f830152612805816127cc565b9050919050565b5f819050815f5260205f209050919050565b5f6020601f8301049050919050565b5f82821b905092915050565b5f600883026128687fffffffffffffffffffffffffffffffffffffffffffffffffffffffffffffffff8261282d565b612872868361282d565b95508019841693508086168417925050509392505050565b5f819050919050565b5f6128ad6128a86128a3846121da565b61288a565b6121da565b9050919050565b5f819050919050565b6128c683612893565b6128da6128d2826128b4565b848454612839565b825550505050565b5f90565b6128ee6128e2565b6128f98184846128bd565b505050565b5b8181101561291c576129115f826128e6565b6001810190506128ff565b5050565b601f821115612961576129328161280c565b61293b8461281e565b8101602085101561294a578190505b61295e6129568561281e565b8301826128fe565b50505b505050565b5f82821c905092915050565b5f6129815f1984600802612966565b1980831691505092915050565b5f6129998383612972565b9150826002028217905092915050565b6129b282611eab565b67ffffffffffffffff8111156129cb576129ca611fb7565b5b6129d58254612635565b6129e0828285612920565b5f60209050601f831160018114612a11575f84156129ff578287015190505b612a09858261298e565b865550612a70565b601f198416612a1f8661280c565b5f5b82811015612a4657848901518255600182019150602085019450602081019050612a21565b86831015612a635784890151612a5f601f891682612972565b8355505b6001600288020188555050505b505050505050565b5f6020820190508181035f830152612a908184611efd565b905092915050565b7f50617469656e7420616c726561647920726567697374657265640000000000005f82015250565b5f612acc601a83611eb5565b9150612ad782612a98565b602082019050919050565b5f6020820190508181035f830152612af981612ac0565b9050919050565b7f4e6f74207468652064617461206f776e657200000000000000000000000000005f82015250565b5f612b34601283611eb5565b9150612b3f82612b00565b602082019050919050565b5f6020820190508181035f830152612b6181612b28565b9050919050565b7f4461746120646f6573206e6f74206578697374000000000000000000000000005f82015250565b5f612b9c601383611eb5565b9150612ba782612b68565b602082019050919050565b5f6020820190508181035f830152612bc981612b90565b9050919050565b5f602082019050612be35f830184612366565b92915050565b7f4e487b71000000000000000000000000000000000000000000000000000000005f52603260045260245ffd5b7f4e487b71000000000000000000000000000000000000000000000000000000005f52601160045260245ffd5b5f612c4d826121da565b91507fffffffffffffffffffffffffffffffffffffffffffffffffffffffffffffffff8203612c7f57612c7e612c16565b5b600182019050919050565b7f44617461206973206e6f74207075626c696300000000000000000000000000005f82015250565b5f612cbe601283611eb5565b9150612cc982612c8a565b602082019050919050565b5f6020820190508181035f830152612ceb81612cb2565b9050919050565b7f496e73756666696369656e74207061796d656e740000000000000000000000005f82015250565b5f612d26601483611eb5565b9150612d3182612cf2565b602082019050919050565b5f6020820190508181035f830152612d5381612d1a565b9050919050565b7f43616e6e6f7420707572636861736520796f7572206f776e20646174610000005f82015250565b5f612d8e601d83611eb5565b9150612d9982612d5a565b602082019050919050565b5f6020820190508181035f830152612dbb81612d82565b905091905056fea26469706673582212208ebcaf8e2c6b1993d48fc3f202b81ffad3f56d9c5a9f888f66d82de8b539ed1564736f6c63430008150033",
  "immutableReferences": {},
  "source": "// SPDX-License-Identifier: MIT\r\npragma solidity ^0.8.19;\r\n\r\ncontract MedicalDataRegistry {\r\n    struct MedicalData {\r\n        string ipfsHash;\r\n        string patientName;\r\n        string dataType;\r\n        uint256 timestamp;\r\n        address owner;\r\n        bool isPublic;\r\n        uint256 price;\r\n        bool exists;\r\n    }\r\n    \r\n    struct Patient {\r\n        string name;\r\n        string email;\r\n        address walletAddress;\r\n        bool isRegistered;\r\n    }\r\n    \r\n    mapping(bytes32 => MedicalData) public medicalDataRegistry;\r\n    mapping(address => Patient) public patients;\r\n    mapping(address => bytes32[]) public patientDataHashes;\r\n    mapping(bytes32 => address[]) public dataAccessors;\r\n    \r\n    bytes32[] public allDataHashes;\r\n    address[] public allPatients;\r\n    \r\n    event DataRegistered(bytes32 indexed dataHash, address indexed owner, string ipfsHash);\r\n    event DataPurchased(bytes32 indexed dataHash, address indexed buyer, uint256 price);\r\n    event PatientRegistered(address indexed patient, string name);\r\n    event DataMadePublic(bytes32 indexed dataHash, uint256 price);\r\n    \r\n    modifier onlyOwner(bytes32 dataHash) {\r\n        require(medicalDataRegistry[dataHash].owner == msg.sender, \"Not the data owner\");\r\n        _;\r\n    }\r\n    \r\n    modifier dataExists(bytes32 dataHash) {\r\n        require(medicalDataRegistry[dataHash].exists, \"Data does not exist\");\r\n        _;\r\n    }\r\n    \r\n    function registerPatient(string memory _name, string memory _email) public {\r\n        require(!patients[msg.sender].isRegistered, \"Patient already registered\");\r\n        \r\n        patients[msg.sender] = Patient({\r\n            name: _name,\r\n            email: _email,\r\n            walletAddress: msg.sender,\r\n            isRegistered: true\r\n        });\r\n        \r\n        allPatients.push(msg.sender);\r\n        emit PatientRegistered(msg.sender, _name);\r\n    }\r\n    \r\n    function registerMedicalData(\r\n        string memory _ipfsHash,\r\n        string memory _patientName,\r\n        string memory _dataType\r\n    ) public returns (bytes32) {\r\n        require(patients[msg.sender].isRegistered, \"Patient not registered\");\r\n        \r\n        bytes32 dataHash = keccak256(abi.encodePacked(_ipfsHash, msg.sender, block.timestamp));\r\n        \r\n        require(!medicalDataRegistry[dataHash].exists, \"Data already registered\");\r\n        \r\n        medicalDataRegistry[dataHash] = MedicalData({\r\n            ipfsHash: _ipfsHash,\r\n            patientName: _patientName,\r\n            dataType: _dataType,\r\n            timestamp: block.timestamp,\r\n            owner: msg.sender,\r\n            isPublic: false,\r\n            price: 0,\r\n            exists: true\r\n        });\r\n        \r\n        patientDataHashes[msg.sender].push(dataHash);\r\n        allDataHashes.push(dataHash);\r\n        \r\n        emit DataRegistered(dataHash, msg.sender, _ipfsHash);\r\n        return dataHash;\r\n    }\r\n    \r\n    function makeDataPublic(bytes32 _dataHash, uint256 _price) public \r\n        onlyOwner(_dataHash) \r\n        dataExists(_dataHash) \r\n    {\r\n        medicalDataRegistry[_dataHash].isPublic = true;\r\n        medicalDataRegistry[_dataHash].price = _price;\r\n        \r\n        emit DataMadePublic(_dataHash, _price);\r\n    }\r\n    \r\n    function purchaseDataAccess(bytes32 _dataHash) public payable \r\n        dataExists(_dataHash) \r\n    {\r\n        MedicalData memory data = medicalDataRegistry[_dataHash];\r\n        require(data.isPublic, \"Data is not public\");\r\n        require(msg.value >= data.price, \"Insufficient payment\");\r\n        require(data.owner != msg.sender, \"Cannot purchase your own data\");\r\n        \r\n        // Transfer payment to data owner\r\n        payable(data.owner).transfer(msg.value);\r\n        \r\n        // Grant access\r\n        dataAccessors[_dataHash].push(msg.sender);\r\n        \r\n        emit DataPurchased(_dataHash, msg.sender, msg.value);\r\n    }\r\n    \r\n    function verifyDataIntegrity(bytes32 _dataHash) public view \r\n        dataExists(_dataHash) \r\n        returns (bool, string memory, address, uint256) \r\n    {\r\n        MedicalData memory data = medicalDataRegistry[_dataHash];\r\n        return (true, data.ipfsHash, data.owner, data.timestamp);\r\n    }\r\n    \r\n    function getPublicDataList() public view returns (bytes32[] memory) {\r\n        bytes32[] memory publicData = new bytes32[](allDataHashes.length);\r\n        uint256 publicCount = 0;\r\n        \r\n        for (uint256 i = 0; i < allDataHashes.length; i++) {\r\n            if (medicalDataRegistry[allDataHashes[i]].isPublic) {\r\n                publicData[publicCount] = allDataHashes[i];\r\n                publicCount++;\r\n            }\r\n        }\r\n        \r\n        // Resize array to actual count\r\n        bytes32[] memory result = new bytes32[](publicCount);\r\n        for (uint256 i = 0; i < publicCount; i++) {\r\n            result[i] = publicData[i];\r\n        }\r\n        \r\n        return result;\r\n    }\r\n    \r\n    function getPatientData(address _patient) public view returns (bytes32[] memory) {\r\n        return patientDataHashes[_patient];\r\n    }\r\n    \r\n    function hasAccessToData(bytes32 _dataHash, address _user) public view returns (bool) {\r\n        if (medicalDataRegistry[_dataHash].owner == _user) {\r\n            return true;\r\n        }\r\n        \r\n        address[] memory accessors = dataAccessors[_dataHash];\r\n        for (uint256 i = 0; i < accessors.length; i++) {\r\n            if (accessors[i] == _user) {\r\n                return true;\r\n            }\r\n        }\r\n        \r\n        return false;\r\n    }\r\n    \r\n    function getMedicalData(bytes32 _dataHash) public view \r\n        dataExists(_dataHash) \r\n        returns (\r\n            string memory ipfsHash,\r\n            string memory patientName,\r\n            string memory dataType,\r\n            uint256 timestamp,\r\n            address owner,\r\n            bool isPublic,\r\n            uint256 price\r\n        ) \r\n    {\r\n        MedicalData memory data = medicalDataRegistry[_dataHash];\r\n        return (\r\n            data.ipfsHash,\r\n            data.patientName,\r\n            data.dataType,\r\n            data.timestamp,\r\n            data.owner,\r\n            data.isPublic,\r\n            data.price\r\n        );\r\n    }\r\n}",
  "sourcePath": "C:\\Users\\gosha\\OneDrive\\Documents\\GitHub\\decent-med-data\\contracts\\MedicalDataRegistry.sol",
  "compiler": {
    "name": "solc",
    "version": "0.8.21+commit.d9974bed.Emscripten.clang"
  },
  "schemaVersion": "3.4.16",
  "updatedAt": "2025-09-14T04:36:38.786Z",
  "devdoc": {
    "kind": "dev",
    "methods": {},
    "version": 1
  },
  "userdoc": {
    "kind": "user",
    "methods": {},
    "version": 1
  }
}